{
  "contractName": "cloud",
  "abi": [
    {
      "constant": true,
      "inputs": [],
      "name": "getMyFiles",
      "outputs": [
        {
          "components": [
            {
              "internalType": "string",
              "name": "hash",
              "type": "string"
            },
            {
              "internalType": "string",
              "name": "mimetype",
              "type": "string"
            },
            {
              "internalType": "string",
              "name": "name",
              "type": "string"
            }
          ],
          "internalType": "struct cloud.file[]",
          "name": "",
          "type": "tuple[]"
        }
      ],
      "payable": false,
      "stateMutability": "view",
      "type": "function"
    },
    {
      "constant": false,
      "inputs": [
        {
          "internalType": "string",
          "name": "_hash",
          "type": "string"
        },
        {
          "internalType": "string",
          "name": "_mimetype",
          "type": "string"
        },
        {
          "internalType": "string",
          "name": "_name",
          "type": "string"
        }
      ],
      "name": "addMyfile",
      "outputs": [],
      "payable": false,
      "stateMutability": "nonpayable",
      "type": "function"
    },
    {
      "constant": false,
      "inputs": [
        {
          "internalType": "address",
          "name": "_add",
          "type": "address"
        },
        {
          "internalType": "string",
          "name": "_hash",
          "type": "string"
        },
        {
          "internalType": "string",
          "name": "_mimetype",
          "type": "string"
        },
        {
          "internalType": "string",
          "name": "_name",
          "type": "string"
        }
      ],
      "name": "shareMyfile",
      "outputs": [],
      "payable": false,
      "stateMutability": "nonpayable",
      "type": "function"
    }
  ],
  "bytecode": "0x608060405234801561001057600080fd5b50610a3b806100206000396000f3fe608060405234801561001057600080fd5b50600436106100415760003560e01c80635d1abd151461004657806390a4b0df14610062578063ba39749a14610080575b600080fd5b610060600480360361005b919081019061062a565b61009c565b005b61006a61018b565b604051610077919061088c565b60405180910390f35b61009a600480360361009591908101906106d5565b61040d565b005b6100a46104fb565b838160000181905250828160200181905250818160400181905250600260008673ffffffffffffffffffffffffffffffffffffffff1673ffffffffffffffffffffffffffffffffffffffff1681526020019081526020016000208190806001815401808255809150509060018203906000526020600020906003020160009091929091909150600082015181600001908051906020019061014692919061051c565b50602082015181600101908051906020019061016392919061051c565b50604082015181600201908051906020019061018092919061051c565b505050505050505050565b6060600260003373ffffffffffffffffffffffffffffffffffffffff1673ffffffffffffffffffffffffffffffffffffffff168152602001908152602001600020805480602002602001604051908101604052809291908181526020016000905b828210156104045783829060005260206000209060030201604051806060016040529081600082018054600181600116156101000203166002900480601f0160208091040260200160405190810160405280929190818152602001828054600181600116156101000203166002900480156102a85780601f1061027d576101008083540402835291602001916102a8565b820191906000526020600020905b81548152906001019060200180831161028b57829003601f168201915b50505050508152602001600182018054600181600116156101000203166002900480601f01602080910402602001604051908101604052809291908181526020018280546001816001161561010002031660029004801561034a5780601f1061031f5761010080835404028352916020019161034a565b820191906000526020600020905b81548152906001019060200180831161032d57829003601f168201915b50505050508152602001600282018054600181600116156101000203166002900480601f0160208091040260200160405190810160405280929190818152602001828054600181600116156101000203166002900480156103ec5780601f106103c1576101008083540402835291602001916103ec565b820191906000526020600020905b8154815290600101906020018083116103cf57829003601f168201915b505050505081525050815260200190600101906101ec565b50505050905090565b6104156104fb565b838160000181905250828160200181905250818160400181905250600260003373ffffffffffffffffffffffffffffffffffffffff1673ffffffffffffffffffffffffffffffffffffffff168152602001908152602001600020819080600181540180825580915050906001820390600052602060002090600302016000909192909190915060008201518160000190805190602001906104b792919061051c565b5060208201518160010190805190602001906104d492919061051c565b5060408201518160020190805190602001906104f192919061051c565b5050505050505050565b60405180606001604052806060815260200160608152602001606081525090565b828054600181600116156101000203166002900490600052602060002090601f016020900481019282601f1061055d57805160ff191683800117855561058b565b8280016001018555821561058b579182015b8281111561058a57825182559160200191906001019061056f565b5b509050610598919061059c565b5090565b6105be91905b808211156105ba5760008160009055506001016105a2565b5090565b90565b6000813590506105d0816109e1565b92915050565b600082601f8301126105e757600080fd5b81356105fa6105f5826108db565b6108ae565b9150808252602083016020830185838301111561061657600080fd5b61062183828461098e565b50505092915050565b6000806000806080858703121561064057600080fd5b600061064e878288016105c1565b945050602085013567ffffffffffffffff81111561066b57600080fd5b610677878288016105d6565b935050604085013567ffffffffffffffff81111561069457600080fd5b6106a0878288016105d6565b925050606085013567ffffffffffffffff8111156106bd57600080fd5b6106c9878288016105d6565b91505092959194509250565b6000806000606084860312156106ea57600080fd5b600084013567ffffffffffffffff81111561070457600080fd5b610710868287016105d6565b935050602084013567ffffffffffffffff81111561072d57600080fd5b610739868287016105d6565b925050604084013567ffffffffffffffff81111561075657600080fd5b610762868287016105d6565b9150509250925092565b6000610778838361082e565b905092915050565b600061078b82610917565b610795818561093a565b9350836020820285016107a785610907565b8060005b858110156107e357848403895281516107c4858261076c565b94506107cf8361092d565b925060208a019950506001810190506107ab565b50829750879550505050505092915050565b600061080082610922565b61080a818561094b565b935061081a81856020860161099d565b610823816109d0565b840191505092915050565b6000606083016000830151848203600086015261084b82826107f5565b9150506020830151848203602086015261086582826107f5565b9150506040830151848203604086015261087f82826107f5565b9150508091505092915050565b600060208201905081810360008301526108a68184610780565b905092915050565b6000604051905081810181811067ffffffffffffffff821117156108d157600080fd5b8060405250919050565b600067ffffffffffffffff8211156108f257600080fd5b601f19601f8301169050602081019050919050565b6000819050602082019050919050565b600081519050919050565b600081519050919050565b6000602082019050919050565b600082825260208201905092915050565b600082825260208201905092915050565b60006109678261096e565b9050919050565b600073ffffffffffffffffffffffffffffffffffffffff82169050919050565b82818337600083830152505050565b60005b838110156109bb5780820151818401526020810190506109a0565b838111156109ca576000848401525b50505050565b6000601f19601f8301169050919050565b6109ea8161095c565b81146109f557600080fd5b5056fea365627a7a72315820eef7bdee826adb9d270c7fd6096d758f0d8a9d14e224d7446c0ae97e735290446c6578706572696d656e74616cf564736f6c63430005100040",
  "source": "pragma solidity ^0.5.0;\r\npragma experimental ABIEncoderV2;\r\n\r\n\r\n/**\r\n* @title cloud\r\n* @author Abhishek Vispute\r\n*/\r\ncontract cloud {\r\n \r\n    address owner;\r\n  \r\n    modifier onlyowner\r\n    {\r\n         require(msg.sender==owner,\"You are not allowed\");\r\n         _;\r\n    }\r\n   \r\n   bytes32 d;\r\n   \r\n   struct file {\r\n       string hash;\r\n       string mimetype;\r\n       string name;\r\n   }\r\n\r\n  mapping(address => file[]) files_per_user;\r\n  \r\n  \r\n  function getMyFiles() public view returns (file [] memory)\r\n   {\r\n       return files_per_user[msg.sender];\r\n   }\r\n   \r\n   function addMyfile(string memory _hash,string memory _mimetype, string memory _name) public\r\n   {\r\n        file memory t;\r\n        t.hash = _hash;\r\n        t.mimetype = _mimetype;\r\n        t.name = _name;\r\n        files_per_user[msg.sender].push(t);\r\n     \r\n   }\r\n   \r\n   function shareMyfile(address _add, string memory _hash,string memory _mimetype, string memory _name) public\r\n   { \r\n        file memory t;\r\n        t.hash = _hash;\r\n        t.mimetype = _mimetype;\r\n        t.name = _name;\r\n        files_per_user[_add].push(t);\r\n       \r\n   }\r\n}",
  "sourcePath": "C:/Users/ASUS/Desktop/decentralized-Cloud/contracts/cloud.sol",
  "compiler": {
    "name": "solc",
    "version": "0.5.16+commit.9c3226ce.Emscripten.clang"
  },
  "schemaVersion": "3.0.22",
  "updatedAt": "2020-07-12T12:26:07.032Z",
  "networkType": "ethereum",
  "devdoc": {
    "author": "Abhishek Vispute",
    "methods": {},
    "title": "cloud"
  },
  "userdoc": {
    "methods": {}
  }
}